:100000000C9462000C948A000C948A000C948A0070
:100010000C948A000C948A000C948A000C948A0038
:100020000C948A000C948A000C948A000C948A0028
:100030000C948A000C948A000C948A000C948A0018
:100040000C9476040C948A000C94E6040C94C0047E
:100050000C948A000C948A000C948A000C948A00F8
:100060000C948A000C948A000000000024002700F1
:100070002A0000000000250028002B0000000000DE
:1000800023002600290004040404040404040202DA
:100090000202020203030303030301020408102007
:1000A0004080010204081020010204081020000012
:1000B0000008000201000003040700000000000027
:1000C00000005D0511241FBECFEFD8E0DEBFCDBF1D
:1000D00011E0A0E0B1E0E6E2F2E102C005900D928D
:1000E000A237B107D9F722E0A2E7B1E001C01D9223
:1000F000A439B207E1F710E0C2E6D0E004C02197CE
:10010000FE010E940B09C136D107C9F70E94EA051A
:100110000C9411090C94000096E0899FD0011124E1
:10012000AB5DBD4F90967C936E935F9791E09196F7
:100130009C939197E0919202F09193029091910299
:10014000992339F0309751F0811108C08091410214
:100150000994309719F05C968C91FACF089583300A
:1001600081F028F4813099F08230A9F00895873029
:10017000A9F08830C9F08430B1F4809180008F7D7F
:1001800003C0809180008F7780938000089584B5AC
:100190008F7784BD089584B58F7DFBCF8091B000AB
:1001A0008F778093B00008958091B0008F7DF9CF54
:1001B000CF93DF93282F30E0F901E255FF4F849170
:1001C000F901E656FF4FD491F901EA57FF4FC49168
:1001D000CC23A1F081110E94AF00EC2FF0E0EE0FD4
:1001E000FF1FE458FF4FA591B491EC91ED2381E0FE
:1001F00090E009F480E0DF91CF91089580E090E0F5
:10020000FACF862F0C94D8001F93CF93DF93282F1B
:1002100030E0F901E255FF4F8491F901E656FF4FB6
:10022000D491F901EA57FF4FC491CC23A9F0162FBE
:1002300081110E94AF00EC2FF0E0EE0FFF1FEE588F
:10024000FF4FA591B4918FB7F894EC91111108C0AC
:10025000D095DE23DC938FBFDF91CF911F9108955E
:10026000DE2BF8CF862F642F0C940401CF93DF93FD
:1002700090E0FC01E656FF4F24918A579F4FFC0106
:1002800084918823C9F090E0880F991FFC01E859F8
:10029000FF4FA591B491FC01EE58FF4FC591D49149
:1002A00061110DC09FB7F8948C91209582238C9397
:1002B0008881282328839FBFDF91CF9108956230E2
:1002C00051F49FB7F8943C91822F809583238C93AF
:1002D000E8812E2BEFCF8FB7F894EC912E2B2C9337
:1002E0008FBFEACF862F642F0C9436013FB7F89466
:1002F0008091840190918501A0918601B091870140
:1003000026B5A89B05C02F3F19F00196A11DB11D70
:100310003FBFBA2FA92F982F8827BC01CD01620FAC
:10032000711D811D911D42E0660F771F881F991F67
:100330004A95D1F708952FB7F89460918001709194
:10034000810180918201909183012FBF08950F93C5
:100350001F93CF93DF93C82FD62F86E0C89FF0015D
:100360001124EB5DFD4F11A2878D90A18130910585
:10037000F1F058F082309105F1F1039709F440C093
:10038000DF91CF911F910F9108956623C9F361E02A
:1003900070E08C2F0E948C000E949B0160937D0274
:1003A00070937E0280937F0290938002E9CF0E9437
:1003B0009B0100917D0210917E0220917F0230917D
:1003C0008002AB01BC01401B510B620B730B80918F
:1003D0008F0290919002B0E0A0E084179507A607E5
:1003E000B70748F462E070E08C2FDF91CF911F9146
:1003F0000F910C948C0063E070E0D111C1CFF4CF69
:1004000070E060E0F1CF6F927F928F929F92AF92F7
:10041000BF92CF92DF92EF92FF920F931F93CF93F1
:10042000DF9381E0809391020E949B010091810201
:10043000109182022091830230918402AB01BC01B1
:10044000401B510B620B730B80918D0290918E02B9
:10045000B0E0A0E084179507A607B70708F014C11D
:10046000C0E080918B02C81760F4E0918702F091A0
:100470008802EC0FF11D62E080810E943601CF5F9F
:10048000F0CF712C812C912C5401839480918C029B
:10049000781608F05FC0072D10E0E0918902F09116
:1004A0008A02E00FF11F61E080810E943601E09135
:1004B0008902F0918A02E00FF11F60E080810E94C2
:1004C0000401D501C401072C04C0880F991FAA1F7D
:1004D000BB1F0A94D2F76C017C01E094F094612C6C
:1004E00080918B026816F8F4C62DD0E0E091870267
:1004F000F0918802EC0FFD1F80810E94D8002496A5
:10050000CC0FDD1FCB5DDD4F892B41F488819981B4
:100510008C299D29998388836394E2CF888199816E
:100520008E219F21F7CFE0918902F0918A02E00F9E
:10053000F11F61E080810E94040180918902909105
:100540008A02080F191F60E0F80180810E943601BD
:1005500073949CCFC5E2D2E0FE018FEF9FEF278D11
:1005600030A1232B21F4148E968F858F11A23696FD
:1005700022E0E136F20799F7F12C96E0D92E80912E
:100580008B02F81608F050C0E12C0F2D10E0000F80
:10059000111F035D1D4F20918C02E21608F042C02E
:1005A000F801608171810E2C02C0769567950A94DE
:1005B000E2F7F29E900111242E0D311DE5E2F2E0EA
:1005C00080E0458D568D2417350709F461C08F5F93
:1005D00036968A30B1F760FF23C0E5E2F2E090E0A2
:1005E00080E0448D411117C0E0918502F0918602B0
:1005F000E20FF31F4081D89EF001D99EF00D112427
:10060000EB5DFD4F448F368F258F10A2178E61E072
:100610000E94A70105C0019636968A30910509F718
:10062000E394B9CFF394ABCF10E089A18111182FD7
:100630002696F2E0C136DF07C1F70E949B01609366
:10064000810270938202809383029093840211232B
:10065000D9F0809146028823B9F0809144029091AC
:100660004502019789F480914102DF91CF911F915A
:100670000F91FF90EF90DF90CF90BF90AF909F9041
:100680008F907F906F9008951092910280E0EDCF4F
:100690006170BECFAF92BF92CF92DF92EF92FF9286
:1006A0000F931F93CF93DF936C017B018B01040F9A
:1006B000151FEB015E01AE18BF08C017D10759F036
:1006C0006991D601ED91FC910190F081E02DC60178
:1006D0000995892B79F7C501DF91CF911F910F9172
:1006E000FF90EF90DF90CF90BF90AF900895FC0106
:1006F000538D448D252F30E0842F90E0821B930B87
:10070000541710F0CF96089501970895FC01918D2C
:10071000828D981761F0A28DAE0FBF2FB11D5D962F
:100720008C91928D9F5F9F73928F90E008958FEFD1
:100730009FEF0895FC01918D828D981731F0828D85
:10074000E80FF11D858D90E008958FEF9FEF0895DC
:10075000FC01918D228D892F90E0805C9F4F821B40
:1007600091098F739927089588E891E00E94A80362
:1007700021E0892B09F420E0822F089580E090E0A9
:10078000892B29F00E94B40381110C940000089574
:10079000FC01A48DA80FB92FB11DA35ABF4F2C91F6
:1007A000848D90E001968F739927848FA689B789ED
:1007B0002C93A089B1898C91837080648C93938DE4
:1007C000848D981306C00288F389E02D80818F7D87
:1007D00080830895EF92FF920F931F93CF93DF933F
:1007E000EC0181E0888F9B8D8C8D98131AC0E8896D
:1007F000F989808185FF15C09FB7F894EE89FF893C
:100800006083E889F98980818370806480839FBFD9
:1008100081E090E0DF91CF911F910F91FF90EF90D9
:100820000895F62E0B8D10E00F5F1F4F0F731127E9
:10083000E02E8C8D8E110CC00FB607FCFACFE88924
:10084000F989808185FFF5CFCE010E94C803F1CFE1
:10085000EB8DEC0FFD2FF11DE35AFF4FF0829FB798
:10086000F8940B8FEA89FB8980818062CFCFCF9388
:10087000DF93EC01888D8823B9F0AA89BB89E889C8
:10088000F9898C9185FD03C0808186FD0DC00FB66E
:1008900007FCF7CF8C9185FFF2CF808185FFEDCFEC
:1008A000CE010E94C803E9CFDF91CF91089542E0C5
:1008B00050E068E371E088E891E00C944A03CF933C
:1008C000DF93FC0101900020E9F73197AF01481B4D
:1008D000590BBC0188E891E00E944A03EC010E9498
:1008E00057048C0F9D1FDF91CF9108951F920F9297
:1008F0000FB60F9211242F933F938F939F93AF9333
:10090000BF938091800190918101A0918201B0916B
:10091000830130917F0123E0230F2D3758F5019695
:10092000A11DB11D20937F018093800190938101CF
:10093000A0938201B09383018091840190918501FD
:10094000A0918601B09187010196A11DB11D8093F0
:10095000840190938501A0938601B0938701BF9194
:10096000AF919F918F913F912F910F900FBE0F905C
:100970001F90189526E8230F0296A11DB11DD2CF16
:100980001F920F920FB60F9211242F933F934F9304
:100990005F936F937F938F939F93AF93BF93EF93E7
:1009A000FF9388E891E00E94C803FF91EF91BF9107
:1009B000AF919F918F917F916F915F914F913F91F7
:1009C0002F910F900FBE0F901F9018951F920F92AE
:1009D0000FB60F9211242F938F939F93EF93FF9352
:1009E000E0919801F09199018081E0919E01F09150
:1009F0009F0182FD1BC090818091A1018F5F8F7349
:100A00002091A201821741F0E091A101F0E0E857A6
:100A1000FE4F958F8093A101FF91EF919F918F9150
:100A20002F910F900FBE0F901F9018958081F4CFDB
:100A3000CF92DF92EF92FF920F931F93E82FF92F3F
:100A400005C0015011092109310961F190819623F6
:100A50009417B9F305C0015011092109310911F1A9
:100A6000908196239413F7CFC12CD12CE12CF12C3B
:100A70000AC08FEFC81AD80AE80AF80A0C151D0533
:100A80002E053F0579F080818623841791F36C2D24
:100A90007D2D8E2D9F2D1F910F91FF90EF90DF9058
:100AA000CF90089560E070E080E090E01F910F919A
:100AB000FF90EF90DF90CF90089510928B011092ED
:100AC0008A0188EE93E0A0E0B0E080938C019093DF
:100AD0008D01A0938E01B0938F0180E291E09093FD
:100AE00089018093880185EC90E090939501809333
:100AF000940184EC90E0909397018093960180ECB0
:100B000090E0909399018093980181EC90E090930C
:100B10009B0180939A0182EC90E090939D018093D9
:100B20009C0186EC90E090939F0180939E0110922F
:100B3000A1011092A2011092A3011092A40110929F
:100B4000270210922B0210922A0210922C0282E3AA
:100B500091E09093260280932502E1E4F2E0108276
:100B6000148213821582369682E0ED37F807B9F7C2
:100B700088E091E0909388028093870284E091E07E
:100B800090938A028093890284E080938B02809301
:100B90008C028CE091E090938602809385028AE03B
:100BA00090E090938E0280938D0284EF91E0909379
:100BB000900280938F0210929302109292021092F0
:100BC000810210928202109283021092840210928B
:100BD00091020895789484B5826084BD84B5816063
:100BE00084BD85B5826085BD85B5816085BD8091F8
:100BF0006E00816080936E00109281008091810070
:100C00008260809381008091810081608093810067
:100C1000809180008160809380008091B100846029
:100C20008093B1008091B00081608093B00080918A
:100C30007A00846080937A0080917A008260809349
:100C40007A0080917A00816080937A0080917A00A6
:100C5000806880937A001092C100E0919801F09131
:100C6000990182E08083E0919401F09195011082D6
:100C7000E0919601F09197018FEC80831092A00192
:100C8000E0919C01F0919D0186E08083E0919A01C2
:100C9000F0919B01808180618083E0919A01F091C5
:100CA0009B01808188608083E0919A01F0919B0193
:100CB000808180688083E0919A01F0919B0180811E
:100CC0008F7D808361E08AE00E94360161E08BE0E5
:100CD0000E94360160E08CE00E94360160E08DE009
:100CE0000E94360161E08EE00E94360160E08FE0F4
:100CF0000E94360161E083E10E94360123E0A22ECA
:100D0000B12C33E2832E912C45E9242E40E0342E81
:100D1000C0E0D0E00E940302833261F410927E01B1
:100D200010927D0110927C0110927B018BE391E087
:100D30000E945F040E949B01C0907401D0907501D5
:100D4000E0907601F09077016C197D098E099F097A
:100D5000683E73408105910508F45AC060E08EE05A
:100D60000E940401C5010197F1F761E08EE00E9445
:100D70000401C4010197F1F760E08EE00E940401D4
:100D8000E9EAF0E06491F1018491E82FF0E0EE0FE0
:100D9000FF1FE458FF4F8591949100E412E42FE087
:100DA00030E0462F0E9418056115710581059105F7
:100DB00029F06F5F7F4F8F4F9F4F9F700E94EC070E
:100DC00026E933E44BE05DE30E944D0820E030E08B
:100DD00040E05FE30E944D0820E030E048E453E447
:100DE0000E94E70718160CF4A7C00E949B016093AD
:100DF00074017093750180937601909377018091CF
:100E00007201909173010196909373018093720126
:100E1000809172019091730102975CF080917C0146
:100E2000811107C081E080937C018FE391E00E94F3
:100E30005F0480917C01882309F457C080917A0176
:100E4000811153C080917D0190917E01892B09F021
:100E50004CC08DE00E94D80061E0019709F460E089
:100E60008BE00E9404010E9403028823D9F02091A4
:100E700078013091790124303105A1F020503F4FA5
:100E8000F9018083682F88E891E00E94EA030E94BC
:100E9000570480917801909179010196909379019E
:100EA0008093780180917801909179010497E9F419
:100EB00080910001823309F044C0809101018333A5
:100EC00009F03FC0809102018433D9F5809103017C
:100ED0008533B9F581E080937B0187E491E00E943E
:100EE0005F04109279011092780180917B01882330
:100EF000C1F08CE00E94D800019709F44FC08091A6
:100F00007D0190917E01892B09F048C081E080939A
:100F10007A0161E08AE00E94040160E08BE00E94B7
:100F20000401209709F4F6CE0E94B403882309F443
:100F3000F1CE0E940000EECE109273011092720169
:100F400067CF10927B0188E591E00E945F040E94C8
:100F500076012B013C0184E6C82ED12CE12CF12C2A
:100F60000E9476016419750986099709683E7340E5
:100F700081059105A8F3F1E0CF1AD108E108F10845
:100F800028EE420E23E0521E611C711CC114D104D4
:100F9000E104F10429F788E691E0A1CF8CE00E94FA
:100FA000D8007C01019709F0BCCF80917D01909120
:100FB0007E01892B09F0B5CF60E08AE00E94040130
:100FC00010927A01F0927E01E0927D01AACF0E94F8
:100FD000290808F481E00895E89409C097FB3EF4DD
:100FE00090958095709561957F4F8F4F9F4F992376
:100FF000A9F0F92F96E9BB279395F69587957795F4
:101000006795B795F111F8CFFAF4BB0F11F460FFB3
:101010001BC06F5F7F4F8F4F9F4F16C0882311F00B
:1010200096E911C0772321F09EE8872F762F05C01F
:10103000662371F096E8862F70E060E02AF09A95BA
:10104000660F771F881FDAF7880F9695879597F9AF
:101050000895990F0008550FAA0BE0E8FEEF161649
:101060001706E807F907C0F012161306E407F5079C
:1010700098F0621B730B840B950B39F40A2661F010
:10108000232B242B252B21F408950A2609F4A140B3
:10109000A6958FEF811D811D08950E9460080C9414
:1010A000D1080E94C30838F00E94CA0820F0952396
:1010B00011F00C94BA080C94C00811240C94050982
:1010C0000E94E20870F3959FC1F3950F50E0551F01
:1010D000629FF001729FBB27F00DB11D639FAA278D
:1010E000F00DB11DAA1F649F6627B00DA11D661FDC
:1010F000829F2227B00DA11D621F739FB00DA11DFD
:10110000621F839FA00D611D221F749F3327A00DB6
:10111000611D231F849F600D211D822F762F6A2F52
:1011200011249F5750409AF0F1F088234AF0EE0FB7
:10113000FF1FBB1F661F771F881F91505040A9F7E4
:101140009E3F510580F00C94BA080C9405095F3F4E
:10115000E4F3983ED4F3869577956795B795F79520
:10116000E7959F5FC1F7FE2B880F911D9695879598
:1011700097F9089597F99F6780E870E060E0089517
:101180009FEF80EC089500240A941616170618069F
:101190000906089500240A9412161306140605067B
:1011A0000895092E0394000C11F4882352F0BB0F0C
:1011B00040F4BF2B11F460FF04C06F5F7F4F8F4F6F
:1011C0009F4F089557FD9058440F551F59F05F3FAA
:1011D00071F04795880F97FB991F61F09F3F79F059
:1011E00087950895121613061406551FF2CF4695DB
:1011F000F1DF08C0161617061806991FF1CF86955D
:101200007105610508940895E894BB276627772740
:10121000CB0197F90895EE0FFF1F0590F491E02D93
:061220000994F894FFCFD1
:1012260030303030050403020908070631323341F5
:1012360034353642373839432A302344000000001B
:10124600EA034A0377033704A80386039A030000D8
:1012560000007201320101010D0A0042616C004278
:10126600616C61626C7500436F72726563742050C5
:10127600617373776F72640057726F6E6720506187
:101286007373776F726421005472792041676169C4
:021296006E00E8
:00000001FF
