:030000000208A54E
:0C08A500787FE4F6D8FD7581070208009A
:100800007F387E001208817F0E7E001208817F01F2
:100810007E001208817F647E0012089312085C7FBC
:10082000657E0012089312085C7F727E00120893A6
:1008300012085C7F657E0012089312085C7F6B7E55
:10084000001208937FC07E001208817F6F7E001225
:0C085000089312085C7F677E000208938A
:100881008F90C2A1C2A0D2A27F0A7E00120860C2CC
:02089100A222A1
:100893008F90C2A1D2A0D2A27F0A7E00120860C2AA
:0208A300A2228F
:04085C007FE87E03B0
:10086000E4FDFCC3ED9FEC9E50167B017A000BBBB0
:1008700000010AEB64714A70F50DBD00010C80E3C4
:010880002255
:00000001FF
