:10000000D284D285D286D28775A0FFC2B2C2B0D2C6
:10001000B175400012019D120A811201BF120A6ED1
:1000200030877A1201E1120A81120203120A6ED29B
:10003000B2308769120225120A6E308760120247B9
:10004000120A81120269120A6E30875112028B1253
:100050000A811202AD120A6E3087421202CF120AD2
:100060006E3087391202F1120A81120313120A6EDE
:1000700030872A120335120A81120357120A6E3092
:10008000871B1203BD120A6E3087121203DF120A99
:1000900081120401120A6E30870302001412042335
:1000A000120445C2B2120A6ED2B2308411308505F4
:1000B00030860280F51204AB120A6E02001412049C
:1000C00067120489120A8112013512016B120A812A
:1000D00030840830850930860A80F5054080E815AF
:1000E0004080E41204CD1204EF120A6E120157D2BE
:1000F000B020B1FDC2B0120511E54444F0F5A012E4
:100100000A81D2B0120A81C2B0E54544F0F5A012CE
:100110000A81D2B0120A81C2B0E54644F0F5A012BD
:100120000A81D2B0120A81C2B012053375400012A2
:100130000A6E020014E54075F00A8485F04375F0FC
:100140000A8485F0424430F541E5424430F542E509
:10015000434430F5430022E54075F00A8485F046BB
:1001600075F00A8485F045F5440022900EADE493C5
:10017000120A3F120A94A3600280F3E541120A4D6D
:10018000120A94E542120A4D120A94742C120A4D76
:10019000120A94E543120A4D120A940022900EA20C
:1001A000E493120A3F120A94A3600280F3900AAE0D
:1001B000E493120A4D120A94A3600280F300229085
:1001C0000EA8E493120A3F120A94A3600280F390EF
:1001D0000ABFE493120A4D120A94A3600280F3004E
:1001E00022900EA2E493120A3F120A94A3600280A6
:1001F000F3900AD0E493120A4D120A94A36002808D
:10020000F30022900EA8E493120A3F120A94A3600E
:100210000280F3900ADCE493120A4D120A94A36060
:100220000280F30022900EA2E493120A3F120A9475
:10023000A3600280F3900AEBE493120A4D120A9431
:10024000A3600280F30022900EA2E493120A3F12F0
:100250000A94A3600280F3900AF7E493120A4D1205
:100260000A94A3600280F30022900EA8E493120A7D
:100270003F120A94A3600280F3900B0CE493120ADD
:100280004D120A94A3600280F30022900EA2E49320
:10029000120A3F120A94A3600280F3900B1CE493AD
:1002A000120A4D120A94A3600280F30022900EA855
:1002B000E493120A3F120A94A3600280F3900B2C7D
:1002C000E493120A4D120A94A3600280F300229074
:1002D0000EA2E493120A3F120A94A3600280F390E4
:1002E0000B3EE493120A4D120A94A3600280F300BD
:1002F00022900EA2E493120A3F120A94A360028095
:10030000F3900B4BE493120A4D120A94A3600280FF
:10031000F30022900EA8E493120A3F120A94A360FD
:100320000280F3900B54E493120A4D120A94A360D6
:100330000280F30022900EA2E493120A3F120A9464
:10034000A3600280F3900B5BE493120A4D120A94AF
:10035000A3600280F30022900EA8E493120A3F12D9
:100360000A94A3600280F3900B6BE493120A4D127F
:100370000A94A3600280F30022900EA2E493120A72
:100380003F120A94A3600280F3900B79E493120A5F
:100390004D120A94A3600280F30022900EA8E49309
:1003A000120A3F120A94A3600280F3900B7FE49339
:1003B000120A4D120A94A3600280F30022900EA24A
:1003C000E493120A3F120A94A3600280F3900B8B0D
:1003D000E493120A4D120A94A3600280F300229063
:1003E0000EA2E493120A3F120A94A3600280F390D3
:1003F0000B8EE493120A4D120A94A3600280F3005C
:1004000022900EA8E493120A3F120A94A36002807D
:10041000F3900B91E493120A4D120A94A3600280A8
:10042000F30022900EA2E493120A3F120A94A360F2
:100430000280F3900B9CE493120A4D120A94A3607D
:100440000280F30022900EA8E493120A3F120A944D
:10045000A3600280F3900BADE493120A4D120A944C
:10046000A3600280F30022900EA2E493120A3F12CE
:100470000A94A3600280F3900BBEE493120A4D121B
:100480000A94A3600280F30022900EA8E493120A5B
:100490003F120A94A3600280F3900BCFE493120AF8
:1004A0004D120A94A3600280F30022900EA2E493FE
:1004B000120A3F120A94A3600280F3900BE0E493C7
:1004C000120A4D120A94A3600280F30022900EA239
:1004D000E493120A3F120A94A3600280F3900BF196
:1004E000E493120A4D120A94A3600280F300229052
:1004F0000EA8E493120A3F120A94A3600280F390BC
:100500000C02E493120A4D120A94A3600280F300D5
:1005100022900EA2E493120A3F120A94A360028072
:10052000F3900C13E493120A4D120A94A360028014
:10053000F30022900EA2E493120A3F120A94A360E1
:100540000280F3900C24E493120A4D120A94A360E3
:100550000280F30022900EA8E493120A3F120A943C
:10056000A3600280F3900C35E493120A4D120A94B2
:10057000A3600280F30022900EA2E493120A3F12BD
:100580000A94A3600280F3900C46E493120A4D1281
:100590000A94A3600280F30022900EA8E493120A4A
:1005A0003F120A94A3600280F3900C4FE493120A66
:1005B0004D120A94A3600280F30022900EA2E493ED
:1005C000120A3F120A94A3600280F3900C60E49335
:1005D000120A4D120A94A3600280F30022900EA822
:1005E000E493120A3F120A94A3600280F3900C7104
:1005F000E493120A4D120A94A3600280F300229041
:100600000EA2E493120A3F120A94A3600280F390B0
:100610000C82E493120A4D120A94A3600280F30044
:1006200022900EA8E493120A3F120A94A36002805B
:10063000F3900C93E493120A4D120A94A360028083
:10064000F30022900EA8E493120A3F120A94A360CA
:100650000280F3900CA4E493120A4D120A94A36052
:100660000280F30022900EA2E493120A3F120A9431
:10067000A3600280F3900CB5E493120A4D120A9421
:10068000A3600280F30022900EA8E493120A3F12A6
:100690000A94A3600280F3900CC6E493120A4D12F0
:1006A0000A94A3600280F30022900EA8E493120A39
:1006B0003F120A94A3600280F3900CD7E493120ACD
:1006C0004D120A94A3600280F30022900EA2E493DC
:1006D000120A3F120A94A3600280F3900CE8E4939C
:1006E000120A4D120A94A3600280F30022900EA217
:1006F000E493120A3F120A94A3600280F3900CF96B
:10070000E493120A4D120A94A3600280F30022902F
:100710000EA8E493120A3F120A94A3600280F39099
:100720000D0AE493120A4D120A94A3600280F300AA
:1007300022900EA8E493120A3F120A94A36002804A
:10074000F3900D1BE493120A4D120A94A3600280E9
:10075000F30022900EA8E493120A3F120A94A360B9
:100760000280F3900D2CE493120A4D120A94A360B8
:100770000280F30022900EA2E493120A3F120A9420
:10078000A3600280F3900D3DE493120A4D120A9487
:10079000A3600280F30022900EA2E493120A3F129B
:1007A0000A94A3600280F3900D4EE493120A4D1256
:1007B0000A94A3600280F30022900EA8E493120A28
:1007C0003F120A94A3600280F3900D5FE493120A33
:1007D0004D120A94A3600280F30022900EA8E493C5
:1007E000120A3F120A94A3600280F3900D70E49302
:1007F000120A4D120A94A3600280F30022900EA206
:10080000E493120A3F120A94A3600280F3900D81D0
:10081000E493120A4D120A94A3600280F30022901E
:100820000EA8E493120A3F120A94A3600280F39088
:100830000D92E493120A4D120A94A3600280F30011
:1008400022900EA8E493120A3F120A94A360028039
:10085000F3900DA3E493120A4D120A94A360028050
:10086000F30022900EA2E493120A3F120A94A360AE
:100870000280F3900DB4E493120A4D120A94A3601F
:100880000280F30022900EA2E493120A3F120A940F
:10089000A3600280F3900DC5E493120A4D120A94EE
:1008A000A3600280F30022900EA8E493120A3F1284
:1008B0000A94A3600280F3900DD6E493120A4D12BD
:1008C0000A94A3600280F30022900EA2E493120A1D
:1008D0003F120A94A3600280F3900DE7E493120A9A
:1008E0004D120A94A3600280F30022900EA8E493B4
:1008F000120A3F120A94A3600280F3900DF8E49369
:10090000120A4D120A94A3600280F30022900EA2F4
:10091000E493120A3F120A94A3600280F3900E0936
:10092000E493120A4D120A94A3600280F30022900D
:100930000EA2E493120A3F120A94A3600280F3907D
:100940000E1AE493120A4D120A94A3600280F30077
:1009500022900EA2E493120A3F120A94A36002802E
:10096000F3900E2BE493120A4D120A94A3600280B6
:10097000F30022900EA2E493120A3F120A94A3609D
:100980000280F3900E3CE493120A4D120A94A36085
:100990000280F30022900EA2E493120A3F120A94FE
:1009A000A3600280F3900E4DE493120A4D120A9454
:1009B000A3600280F30022900EA8E493120A3F1273
:1009C0000A94A3600280F3900E5EE493120A4D1223
:1009D0000A94A3600280F30022900EA8E493120A06
:1009E0003F120A94A3600280F3900E6FE493120A00
:1009F0004D120A94A3600280F30022900EA2E493A9
:100A0000120A3F120A94A3600280F3900E80E493CE
:100A1000120A4D120A94A3600280F30022900EA2E3
:100A2000E493120A3F120A94A3600280F3900E919D
:100A3000E493120A4D120A94A3600280F30022F597
:100A400090C2B5C2B6D2B7120A94C2B722F590D2FC
:100A5000B5C2B6D2B7120A94C2B72275351475362C
:100A6000FF7537FFD537FDD536F7D535F12275350A
:100A70000C7536FF7537FFD537FDD536F7D535F10F
:100A8000227535057536FF7537FFD537FDD536F735
:100A9000D535F1227538FFD538FD2275350275360A
:100AA000FF7537FFD537FDD536F7D535F122202034
:100AB0002044455349474E20414E442020200043C6
:100AC0004F4E535452554354494F4E204F462000E9
:100AD00020414E54492D54484546540020534D4121
:100AE0005254205052455041494400204D455445F0
:100AF0005220202020200020202044455349474EEA
:100B0000454420425920202020202000202020532E
:100B100054455048454E20202020200020204F5989
:100B20004F565745564F545520202000202030382E
:100B3000313038363537353239202020200020201A
:100B400020202020202020202020002020202020C5
:100B50002020200020202020202000202044414D63
:100B600050494E472020202020200020444556494F
:100B7000434520202020202000202020202000325B
:100B800039204A414E2032303231002020002020CE
:100B900000202020202020202020200052454348F3
:100BA00041524745205554494C4954590020202072
:100BB00059455320202020204E4F20202000204146
:100BC0004D4F554E5420284E414952412920002076
:100BD0002020202020202030302020202020200015
:100BE000494E56414C494420434F4D4D414E4420BF
:100BF0000052454348415247494E47204D455445D0
:100C000052004E4F3A20303031412F35322D334C87
:100C10002F3900202020434F4E4E45435445442158
:100C2000212020004D455445522052454348415211
:100C300047454420004F2D2020202020204F462DC6
:100C400020202020200020434C4F434B3A200020FE
:100C5000202020204D45535341474520202020008F
:100C60002020202053454E44494E472E2E2E202032
:100C70000020202020202053454E542121202020D8
:100C8000200020202020204D45535341474520205F
:100C90002020002020202053454E44494E472E2E30
:100CA0002E20200020202020202053454E5421219A
:100CB0002020202000504F57455220415641494C9A
:100CC00041424C452000205055424C494320535549
:100CD00050504C5920200020204953204156414972
:100CE0004C41424C452020002020484153204641A1
:100CF000494C4544202020200020204953205245C3
:100D000053544F52454420202000434845434B2034
:100D100047454E20535441545553002020204F50F6
:100D200045524154494F4E20202020002020495355
:100D3000205355434345535346554C2000495320B7
:100D4000554E5355434345535346554C2000434855
:100D5000414E47494E47204F56455220544F004779
:100D6000454E455241544F5220535550504C590016
:100D7000205055424C4943204D41494E532020209C
:100D800000205455524E494E47204F4E205448455E
:100D900020005455524E494E47204F464620544855
:100DA00045200020202047454E455241544F5220B7
:100DB0002020200020205354415254494E472047C0
:100DC000454E2020002020202053455155454E43BC
:100DD00045202020200020202047454E20504F57FE
:100DE000455220202020002053595354454D20497E
:100DF0005320444F574E20004F5554204F46204417
:100E000055524154494F4E2000504F5745522053A0
:100E10005550504C59204F5554004348414E47457A
:100E20002053455454494E47532000202020594513
:100E30005320202020204E4F2020200020494E56B5
:100E4000414C494420434F4D4D414E4400204341C5
:100E50004C4C20434F4E4E454354454420002020E7
:100E600046414C534520414C41524D202020004FDB
:100E700056455249444520434F4D4D414E443A005A
:100E8000464F5243452047454E20544F204F4E2059
:100E900000464F5243452047454E20544F204F4671
:100EA000460038060C80010038060CC00038060CDD
:100EB000C40038060CC80038060C820038060C8BBB
:010EC0000031
:00000001FF
