:100000007580FFC2B2C2B2C2B2C2B275401D7541A4
:100010000175421575431475519B12039B12072DF0
:100020001203BD12072D1203DF12072D1204011255
:10003000071A12042312072D12044512072D120469
:100040006712072D12048912072D1200DB1201F925
:1000500012072D12013112025B12072D12017512C7
:1000600002A512072D12015312030712072D208437
:10007000FDC2803084FD2084FDD280E580F54B30C8
:1000800084FD2084FDE580F54C3084FD2084FDE571
:1000900080F54DE54B540F4430F54BF54EE54C548F
:1000A0000F4430F54CF54FE54D540F4430F54DF508
:1000B0005012025B12072D12030712072D02006E69
:1000C0007590FFE590FF00227590FFC287D28720D0
:1000D00085FDC286E590FFD2860022E54075F00AD4
:1000E0008485F04675F00A8485F045E5464430F590
:1000F00046E5454430F545E54175F00A8485F0480C
:1001000075F00A8485F047E5484430F548E54744F2
:1001100030F547E54275F00A8485F04A75F00A84A7
:1001200085F049E54A4430F54AE5494430F549004F
:1001300022E54375F00A8485F04D75F00A8485F058
:100140004C4430F54BE54C4430F54CE54D4430F52E
:100150004D0022E54475F00A8485F05075F00A845C
:1001600085F04F4430F54EE54F4430F54FE55044AF
:1001700030F5500022E55175F00A8485F05475F091
:100180000A8485F0534430F552E5534430F553E585
:10019000544430F5540022900913E4931206ED12F2
:1001A0000740A3600280F3E5451206FA120740E516
:1001B000461206FA120740742D1206FA120740E59D
:1001C000471206FA120740E5481206FA1207407471
:1001D0002D1206FA12074074321206FA1207407402
:1001E000301206FA120740E5491206FA120740E5F6
:1001F0004A1206FA1207400022900918E4931206E8
:10020000ED120740A3600280F3E5451206FA1207DB
:1002100040E5461206FA120740742D1206FA12073C
:1002200040E5471206FA120740E5481206FA12079F
:1002300040742D1206FA12074074321206FA1207A1
:100240004074301206FA120740E5491206FA120706
:1002500040E54A1206FA120740002290091DE49375
:100260001206ED120740A3600280F374231206FA0F
:10027000120740E54B1206FA120740E54C1206FA47
:10028000120740742C1206FA120740E54D1206FAC6
:1002900012074074301206FA12074074301206FA40
:1002A0001207400022900922E4931206ED12074043
:1002B000A3600280F374231206FA120740E552127B
:1002C00006FA120740E5531206FA120740742E127E
:1002D00006FA120740E5541206FA1207407430126B
:1002E00006FA120740742F1206FA120740744B12D6
:1002F00006FA12074074571206FA12074074681281
:1003000006FA1207400022900927E4931206ED1224
:100310000740A3600280F374231206FA120740E537
:100320004E1206FA120740E54F1206FA1207407401
:100330002C1206FA120740E5501206FA1207407412
:10034000301206FA12074074301206FA1207400003
:100350002290092CE4931206ED120740A36002805C
:10036000F374231206FA120740E54B1206FA12073D
:1003700040E54C1206FA120740742C1206FA1207D6
:1003800040E54D1206FA12074074301206FA1207C1
:100390004074301206FA12074000229008FEE493DF
:1003A0001206ED120740A3600280F3900754E49315
:1003B0001206FA120740A3600280F300229009049B
:1003C000E4931206ED120740A3600280F3900765E4
:1003D000E4931206FA120740A3600280F300229011
:1003E0000909E4931206ED120740A3600280F3901E
:1003F0000776E4931206FA120740A3600280F30026
:100400002290090EE4931206ED120740A3600280C9
:10041000F3900787E4931206FA120740A360028064
:10042000F300229008FEE4931206ED120740A36049
:100430000280F3900799E4931206FA120740A36032
:100440000280F30022900904E4931206ED120740A3
:10045000A3600280F39007AAE4931206FA12074001
:10046000A3600280F30022900909E4931206ED12C2
:100470000740A3600280F39007BBE4931206FA12D0
:100480000740A3600280F3002290090EE493120655
:10049000ED120740A3600280F39007CCE4931206AC
:1004A000FA120740A3600280F300229008FEE49352
:1004B0001206ED120740A3600280F39007DDE4937B
:1004C0001206FA120740A3600280F300229008FE91
:1004D000E4931206ED120740A3600280F39007EE4A
:1004E000E4931206FA120740A3600280F300229000
:1004F0000904E4931206ED120740A3600280F39012
:1005000007FFE4931206FA120740A3600280F3008B
:1005100022900909E4931206ED120740A3600280BD
:10052000F3900810E4931206FA120740A3600280C9
:10053000F30022900904E4931206ED120740A36031
:100540000280F3900821E4931206FA120740A36098
:100550000280F30022900904E4931206ED12074092
:10056000A3600280F3900832E4931206FA12074067
:10057000A3600280F30022900904E4931206ED12B6
:100580000740A3600280F3900843E4931206FA1236
:100590000740A3600280F300229008FEE493120655
:1005A000ED120740A3600280F3900854E493120612
:1005B000FA120740A3600280F300229008FEE49341
:1005C0001206ED120740A3600280F3900865E493E1
:1005D0001206FA120740A3600280F3002290090479
:1005E000E4931206ED120740A3600280F3900876B0
:1005F000E4931206FA120740A3600280F3002290EF
:100600000904E4931206ED120740A3600280F39000
:100610000887E4931206FA120740A3600280F300F1
:1006200022900909E4931206ED120740A3600280AC
:10063000F3900898E4931206FA120740A360028030
:10064000F30022900909E4931206ED120740A3601B
:100650000280F39008A9E4931206FA120740A360FF
:100660000280F300229008FEE4931206ED12074088
:10067000A3600280F39008BAE4931206FA120740CE
:10068000A3600280F300229008FEE4931206ED12AC
:100690000740A3600280F39008CBE4931206FA129D
:1006A0000740A3600280F30022900904E49312063D
:1006B000ED120740A3600280F39008DCE493120679
:1006C000FA120740A3600280F30022900904E49329
:1006D0001206ED120740A3600280F39008EDE49348
:1006E0001206FA120740A3600280F30022F5A0C2AE
:1006F000B0C2B1D2B2F140C2B222F5A0D2B0C2B102
:10070000D2B2F140C2B22275350F7536FF7537FF90
:10071000D537FDD536F7D535F12275350A7536FF53
:100720007537FFD537FDD536F7D535F12275350844
:100730007536FF7537FFD537FDD536F7D535F1223C
:100740007538FFD538FD227534FF7533FFD533FD7D
:10075000D534F72220202044455349474E20414EAE
:100760004420202000434F4E535452554354494F88
:100770004E204F4620004120534D415254205052AC
:1007800045504149442000414E54492D5448454666
:1007900054204D455445522000444154453A2020B0
:1007A000202020202020202020004352454449546E
:1007B0003A20202020202020202000524154453A79
:1007C00020202020202020202020200054484546A2
:1007D000543A2020202020202020202000202020EB
:1007E0002020202020202020202020202000202029
:1007F00020204143434F554E5420202020200020EC
:100800002052454348415247494E472E2E2E200044
:100810004E4557204143434F554E542042414C20B2
:100820000054454D5020464F5220535045454420DA
:10083000310054454D5020464F52205350454544B9
:1008400020320054454D5020464F522053504545CC
:100850004420330020494E56414C494420434F4DDB
:100860004D414E4400434845434B494E4720535960
:100870005354454D20002020205354415455532EAD
:100880002E2E2E20202000414C54455220535045FE
:1008900045442054454D50002020594553202020E8
:1008A000202020204E4F20200020202020495320AF
:1008B00053455420202020202000434C4F434B3AE6
:1008C0002020202020202020202000202020202048
:1008D00020202020202020202020200020205245E1
:1008E00053455420434C4F434B2020200020534578
:1008F0005454494E4720434C4F434B202000380668
:100900000C80010038060CC00038060C9000380638
:100910000CD00038060C960038060C860038060C01
:10092000C80038060C960038060CD60038060CD4E1
:0109300000C6
:00000001FF
