:100000007580FF7590FFC2A3D2A4D285D286D28715
:10001000C2A5D2A0D2A1D2A2D2A6D2A73087053043
:10002000A40280F8C2A7D2A3C2A530A4FDC2A32017
:10003000A4FDE590F54B30A4FD20A4FDE590F54C22
:1000400030A4FD20A4FDE590F54D30A4FDD2A7120B
:1000500000C81200A1C2A7C2841200DB2080FDD21A
:10006000841200DBE58054F0454BF580C284120019
:10007000DBD2841200DBE58054F0454CF580C2846D
:100080001200DBD2841200DBE58054F0454DF58090
:10009000C2841200DBD2841200DBD2A5D2A70200F8
:1000A0001CE54B540FF54BE54C540FF54CE54D5406
:1000B0000FF54D00227535147536FF7537FFD537AE
:1000C000FDD536F7D535F12275350C7536FF753708
:1000D000FFD537FDD536F7D535F12275350575369F
:1000E000FF7537FFD537FDD536F7D535F122753891
:1000F000FFD538FD227535027536FF7537FFD537C8
:08010000FDD536F7D535F122DB
:00000001FF
